{
  "contractName": "HealthCare",
  "abi": [
    {
      "inputs": [],
      "payable": false,
      "stateMutability": "nonpayable",
      "type": "constructor"
    },
    {
      "anonymous": false,
      "inputs": [
        {
          "indexed": false,
          "internalType": "uint256",
          "name": "ID",
          "type": "uint256"
        },
        {
          "indexed": false,
          "internalType": "string",
          "name": "testName",
          "type": "string"
        },
        {
          "indexed": false,
          "internalType": "string",
          "name": "date",
          "type": "string"
        },
        {
          "indexed": false,
          "internalType": "string",
          "name": "hospitalName",
          "type": "string"
        },
        {
          "indexed": false,
          "internalType": "uint256",
          "name": "price",
          "type": "uint256"
        }
      ],
      "name": "recordCreated",
      "type": "event"
    },
    {
      "anonymous": false,
      "inputs": [
        {
          "indexed": false,
          "internalType": "uint256",
          "name": "ID",
          "type": "uint256"
        },
        {
          "indexed": false,
          "internalType": "string",
          "name": "testName",
          "type": "string"
        },
        {
          "indexed": false,
          "internalType": "string",
          "name": "date",
          "type": "string"
        },
        {
          "indexed": false,
          "internalType": "string",
          "name": "hospitalName",
          "type": "string"
        },
        {
          "indexed": false,
          "internalType": "uint256",
          "name": "price",
          "type": "uint256"
        }
      ],
      "name": "recordSigned",
      "type": "event"
    },
    {
      "constant": true,
      "inputs": [
        {
          "internalType": "uint256",
          "name": "",
          "type": "uint256"
        }
      ],
      "name": "_records",
      "outputs": [
        {
          "internalType": "uint256",
          "name": "ID",
          "type": "uint256"
        },
        {
          "internalType": "uint256",
          "name": "price",
          "type": "uint256"
        },
        {
          "internalType": "uint256",
          "name": "signatureCount",
          "type": "uint256"
        },
        {
          "internalType": "string",
          "name": "testName",
          "type": "string"
        },
        {
          "internalType": "string",
          "name": "date",
          "type": "string"
        },
        {
          "internalType": "string",
          "name": "hospitalName",
          "type": "string"
        },
        {
          "internalType": "bool",
          "name": "isValue",
          "type": "bool"
        },
        {
          "internalType": "address",
          "name": "pAddr",
          "type": "address"
        }
      ],
      "payable": false,
      "stateMutability": "view",
      "type": "function"
    },
    {
      "constant": true,
      "inputs": [
        {
          "internalType": "uint256",
          "name": "",
          "type": "uint256"
        }
      ],
      "name": "recordsArr",
      "outputs": [
        {
          "internalType": "uint256",
          "name": "",
          "type": "uint256"
        }
      ],
      "payable": false,
      "stateMutability": "view",
      "type": "function"
    },
    {
      "constant": false,
      "inputs": [
        {
          "internalType": "uint256",
          "name": "_ID",
          "type": "uint256"
        },
        {
          "internalType": "string",
          "name": "_tName",
          "type": "string"
        },
        {
          "internalType": "string",
          "name": "_date",
          "type": "string"
        },
        {
          "internalType": "string",
          "name": "hName",
          "type": "string"
        },
        {
          "internalType": "uint256",
          "name": "price",
          "type": "uint256"
        }
      ],
      "name": "newRecord",
      "outputs": [],
      "payable": false,
      "stateMutability": "nonpayable",
      "type": "function"
    },
    {
      "constant": false,
      "inputs": [
        {
          "internalType": "uint256",
          "name": "_ID",
          "type": "uint256"
        }
      ],
      "name": "signRecord",
      "outputs": [],
      "payable": false,
      "stateMutability": "nonpayable",
      "type": "function"
    },
    {
      "constant": true,
      "inputs": [],
      "name": "getRecords",
      "outputs": [
        {
          "internalType": "uint256[]",
          "name": "",
          "type": "uint256[]"
        },
        {
          "internalType": "string[]",
          "name": "",
          "type": "string[]"
        },
        {
          "internalType": "string[]",
          "name": "",
          "type": "string[]"
        },
        {
          "internalType": "string[]",
          "name": "",
          "type": "string[]"
        },
        {
          "internalType": "uint256[]",
          "name": "",
          "type": "uint256[]"
        }
      ],
      "payable": false,
      "stateMutability": "view",
      "type": "function"
    },
    {
      "constant": true,
      "inputs": [],
      "name": "returnLength",
      "outputs": [
        {
          "internalType": "uint256",
          "name": "",
          "type": "uint256"
        }
      ],
      "payable": false,
      "stateMutability": "view",
      "type": "function"
    }
  ],
  "bytecode": "0x608060405234801561001057600080fd5b50600080546001600160a01b031990811633179091556001805490911673fb27fa7bfa59efc40785b3cc2dfed71199a7eb1e179055610ff8806100546000396000f3fe608060405234801561001057600080fd5b50600436106100625760003560e01c806317aa7fcb14610067578063549b39fc1461007c5780638eff3c29146100a5578063a4081e16146100be578063a508d0ed146100c6578063ee96b9eb146100d9575b600080fd5b61007a610075366004610a91565b610100565b005b61008f61008a366004610a6b565b610215565b60405161009c9190610d8b565b60405180910390f35b6100ad610233565b60405161009c959493929190610d1f565b61008f610668565b61007a6100d4366004610a6b565b610672565b6100ec6100e7366004610a6b565b610786565b60405161009c989796959493929190610e42565b6000858152600260205260409020600681015460ff161561012057600080fd5b600681018054610100600160a81b03191633610100021790558581558451610151906003830190602088019061096e565b508351610167906004830190602087019061096e565b50825161017d906005830190602086019061096e565b50600180820183905560068201805460ff19168217905560006002830181905560038054928301815590527fc2575a0e9e593c00f959f8c92f12db2869c3395a3b0502d05e2516446f71f85b0186905580546040517fc20f59e9d68948c943c420ad03b09ad5b4b7feccfe038eb67e9845033df38e1091610205918890889088908890610d99565b60405180910390a1505050505050565b6003818154811061022257fe5b600091825260209091200154905081565b606080606080606080600380548060200260200160405190810160405280929190818152602001828054801561028857602002820191906000526020600020905b815481526020019060010190808311610274575b50505050509050600060038054905090506060816040519080825280602002602001820160405280156102cf57816020015b60608152602001906001900390816102ba5790505b50905060608260405190808252806020026020018201604052801561030857816020015b60608152602001906001900390816102f35790505b50905060608360405190808252806020026020018201604052801561034157816020015b606081526020019060019003908161032c5790505b509050606084604051908082528060200260200182016040528015610370578160200160208202803883390190505b50905060005b600354811015610654576002600088838151811061039057fe5b602002602001015181526020019081526020016000206003018054600181600116156101000203166002900480601f01602080910402602001604051908101604052809291908181526020018280546001816001161561010002031660029004801561043d5780601f106104125761010080835404028352916020019161043d565b820191906000526020600020905b81548152906001019060200180831161042057829003601f168201915b505050505085828151811061044e57fe5b60200260200101819052506002600088838151811061046957fe5b602002602001015181526020019081526020016000206004018054600181600116156101000203166002900480601f0160208091040260200160405190810160405280929190818152602001828054600181600116156101000203166002900480156105165780601f106104eb57610100808354040283529160200191610516565b820191906000526020600020905b8154815290600101906020018083116104f957829003601f168201915b505050505084828151811061052757fe5b60200260200101819052506002600088838151811061054257fe5b602002602001015181526020019081526020016000206005018054600181600116156101000203166002900480601f0160208091040260200160405190810160405280929190818152602001828054600181600116156101000203166002900480156105ef5780601f106105c4576101008083540402835291602001916105ef565b820191906000526020600020905b8154815290600101906020018083116105d257829003601f168201915b505050505083828151811061060057fe5b60200260200101819052506002600088838151811061061b57fe5b602002602001015181526020019081526020016000206001015482828151811061064157fe5b6020908102919091010152600101610376565b50949a929950909750955091935090915050565b6003546064015b90565b6000546001600160a01b031633148061069557506001546001600160a01b031633145b61069e57600080fd5b6000818152600260205260409020600681015461010090046001600160a01b03166106c857600080fd5b600681015461010090046001600160a01b03163314156106e757600080fd5b3360009081526007820160205260409020546001141561070657600080fd5b336000908152600782016020526040902060019081905560028083018054909201918290551415610782577fc2f555c23b76b78740a06bbfda9d00e05b6234a7e1123d7408fe22f39eaeb81f81600001548260030183600401846005018560010154604051610779959493929190610dfa565b60405180910390a15b5050565b60026020818152600092835260409283902080546001808301548386015460038501805489519481161561010002600019011697909704601f810187900487028401870190985287835292969095929491929183018282801561082a5780601f106107ff5761010080835404028352916020019161082a565b820191906000526020600020905b81548152906001019060200180831161080d57829003601f168201915b5050505060048301805460408051602060026001851615610100026000190190941693909304601f81018490048402820184019092528181529495949350908301828280156108ba5780601f1061088f576101008083540402835291602001916108ba565b820191906000526020600020905b81548152906001019060200180831161089d57829003601f168201915b5050505060058301805460408051602060026001851615610100026000190190941693909304601f810184900484028201840190925281815294959493509083018282801561094a5780601f1061091f5761010080835404028352916020019161094a565b820191906000526020600020905b81548152906001019060200180831161092d57829003601f168201915b5050506006909301549192505060ff8116906001600160a01b036101009091041688565b828054600181600116156101000203166002900490600052602060002090601f016020900481019282601f106109af57805160ff19168380011785556109dc565b828001600101855582156109dc579182015b828111156109dc5782518255916020019190600101906109c1565b506109e89291506109ec565b5090565b61066f91905b808211156109e857600081556001016109f2565b600082601f830112610a1757600080fd5b8135610a2a610a2582610ef5565b610ece565b91508082526020830160208301858383011115610a4657600080fd5b610a51838284610f58565b50505092915050565b8035610a6581610f9e565b92915050565b600060208284031215610a7d57600080fd5b6000610a898484610a5a565b949350505050565b600080600080600060a08688031215610aa957600080fd5b6000610ab58888610a5a565b955050602086013567ffffffffffffffff811115610ad257600080fd5b610ade88828901610a06565b945050604086013567ffffffffffffffff811115610afb57600080fd5b610b0788828901610a06565b935050606086013567ffffffffffffffff811115610b2457600080fd5b610b3088828901610a06565b9250506080610b4188828901610a5a565b9150509295509295909350565b6000610b5a8383610c54565b9392505050565b6000610b6d8383610d16565b505060200190565b610b7e81610f3c565b82525050565b6000610b8f82610f2f565b610b998185610f33565b935083602082028501610bab85610f1d565b8060005b85811015610be55784840389528151610bc88582610b4e565b9450610bd383610f1d565b60209a909a0199925050600101610baf565b5091979650505050505050565b6000610bfd82610f2f565b610c078185610f33565b9350610c1283610f1d565b8060005b83811015610c40578151610c2a8882610b61565b9750610c3583610f1d565b925050600101610c16565b509495945050505050565b610b7e81610f47565b6000610c5f82610f2f565b610c698185610f33565b9350610c79818560208601610f64565b610c8281610f94565b9093019392505050565b600081546001811660008114610ca95760018114610ccf57610d0e565b607f6002830416610cba8187610f33565b60ff1984168152955050602085019250610d0e565b60028204610cdd8187610f33565b9550610ce885610f23565b60005b82811015610d0757815488820152600190910190602001610ceb565b8701945050505b505092915050565b610b7e8161066f565b60a08082528101610d308188610bf2565b90508181036020830152610d448187610b84565b90508181036040830152610d588186610b84565b90508181036060830152610d6c8185610b84565b90508181036080830152610d808184610bf2565b979650505050505050565b60208101610a658284610d16565b60a08101610da78288610d16565b8181036020830152610db98187610c54565b90508181036040830152610dcd8186610c54565b90508181036060830152610de18185610c54565b9050610df06080830184610d16565b9695505050505050565b60a08101610e088288610d16565b8181036020830152610e1a8187610c8c565b90508181036040830152610e2e8186610c8c565b90508181036060830152610de18185610c8c565b6101008101610e51828b610d16565b610e5e602083018a610d16565b610e6b6040830189610d16565b8181036060830152610e7d8188610c54565b90508181036080830152610e918187610c54565b905081810360a0830152610ea58186610c54565b9050610eb460c0830185610c4b565b610ec160e0830184610b75565b9998505050505050505050565b60405181810167ffffffffffffffff81118282101715610eed57600080fd5b604052919050565b600067ffffffffffffffff821115610f0c57600080fd5b506020601f91909101601f19160190565b60200190565b60009081526020902090565b5190565b90815260200190565b6000610a6582610f4c565b151590565b6001600160a01b031690565b82818337506000910152565b60005b83811015610f7f578181015183820152602001610f67565b83811115610f8e576000848401525b50505050565b601f01601f191690565b610fa78161066f565b8114610fb257600080fd5b5056fea365627a7a7231582002b1f4891ed28ccb9bbaf05f7b977b9e9e5da9e43b77f90977c0895affe56f116c6578706572696d656e74616cf564736f6c63430005100040",
  "source": "pragma solidity >=0.4.22 <0.9.0;\r\npragma experimental ABIEncoderV2;\r\n\r\n\r\ncontract HealthCare {\r\n\r\n    address private hospitalAdmin;\r\n    address private labAdmin;\r\n\r\n    struct Record {\r\n        uint256 ID;\r\n        uint256 price;\r\n        uint256 signatureCount;\r\n        string testName;\r\n        string date;\r\n        string hospitalName;\r\n        bool isValue;\r\n        address pAddr;\r\n        mapping (address => uint256) signatures;\r\n    }\r\n\r\n    modifier signOnly {\r\n        require (msg.sender == hospitalAdmin || msg.sender == labAdmin );\r\n        _;\r\n    }\r\n\r\n    constructor() public {\r\n        hospitalAdmin = msg.sender;\r\n        labAdmin = 0xFb27Fa7BfA59efC40785B3CC2dfed71199a7eB1e;     //assigning a hard coded address from ganache                   \r\n    }\r\n    \r\n    \r\n    // Mapping to store records\r\n    mapping (uint256=> Record) public _records;\r\n    uint256[] public recordsArr;\r\n\r\n    event recordCreated(uint256 ID, string testName, string date, string hospitalName, uint256 price);\r\n    event recordSigned(uint256 ID, string testName, string date, string hospitalName, uint256 price);\r\n    \r\n    // Create new record\r\n\r\n    function newRecord (uint256 _ID, string memory _tName, string memory _date, string memory hName, uint256 price) public{\r\n        Record storage _newrecord = _records[_ID];\r\n\r\n        // Only allows new records to be created\r\n        require(!_records[_ID].isValue);\r\n            _newrecord.pAddr = msg.sender;\r\n            _newrecord.ID = _ID;\r\n            _newrecord.testName = _tName;\r\n            _newrecord.date = _date;\r\n            _newrecord.hospitalName = hName;\r\n            _newrecord.price = price;\r\n            _newrecord.isValue = true;\r\n            _newrecord.signatureCount = 0;\r\n\r\n        recordsArr.push(_ID);\r\n        emit  recordCreated(_newrecord.ID, _tName, _date, hName, price);\r\n    }\r\n\r\n    // Function to sign a record \r\n    function signRecord(uint256 _ID) signOnly public {\r\n        Record storage records = _records[_ID];\r\n        \r\n        // Checks the aunthenticity of the address signing it\r\n        require(address(0) != records.pAddr);\r\n        require(msg.sender != records.pAddr);\r\n        \r\n        // Doesn't allow the same person to sign twice\r\n        require(records.signatures[msg.sender] != 1);\r\n\r\n        records.signatures[msg.sender] = 1;\r\n        records.signatureCount++;\r\n\r\n        // Checks if the record has been signed by both the authorities to process insurance claim\r\n        if(records.signatureCount == 2)\r\n            emit  recordSigned(records.ID, records.testName, records.date, records.hospitalName, records.price);\r\n\r\n    }\r\n\r\n    // Function to get all the [records]\r\n    function getRecords() public view returns (uint256[] memory, string[] memory, string[] memory, string[] memory, uint256[] memory){\r\n        uint256[] memory _recordsArr = recordsArr;\r\n        uint recLength=recordsArr.length;\r\n        string[] memory _testNames = new string[](recLength);\r\n        string[] memory _dates = new string[](recLength);\r\n        string[] memory _hospitals = new string[](recLength);\r\n        uint256[] memory _prices = new uint256[](recLength);\r\n\r\n        for(uint i = 0; i < recordsArr.length; i++){\r\n            _testNames[i] = _records[_recordsArr[i]].testName;\r\n            _dates[i] = _records[_recordsArr[i]].date;\r\n            _hospitals[i] = _records[_recordsArr[i]].hospitalName;\r\n            _prices[i] = _records[_recordsArr[i]].price;\r\n        }\r\n\r\n        return (_recordsArr, _testNames, _dates, _hospitals, _prices);\r\n    }\r\n\r\n    function returnLength() public view returns (uint){\r\n        return recordsArr.length +100;\r\n    }\r\n\r\n}\r\n",
  "sourcePath": "D:\\GitHub\\HealthCare-Insurance-Ethereum\\contracts\\HealthCare.sol",
  "compiler": {
    "name": "solc",
    "version": "0.5.16+commit.9c3226ce.Emscripten.clang"
  },
  "schemaVersion": "3.4.7",
  "updatedAt": "2022-04-20T19:24:18.332Z",
  "networkType": "ethereum",
  "devdoc": {
    "methods": {}
  },
  "userdoc": {
    "methods": {}
  }
}